:100000000C942A000C945F040C9488040C94B104A2
:100010000C9447000C9447000C9447000C94DA04AD
:100020000C9447000C9447000C9447000C94470034
:100030000C9447000C9447000C9447000C94470024
:100040000C9447000C9447000C9447000C94470014
:100050000C94470011241FBECFE5D8E0DEBFCDBF12
:1000600010E0A0E6B0E0ECE8FAE002C005900D92E6
:10007000A839B107D9F720E0A8E9B0E001C01D9286
:10008000A33AB207E1F70E9402030C9444050C94D2
:10009000000080919A008A3048F58091990080FD97
:1000A0000EC060E082E00E94FA028DE691E00197C6
:1000B000F1F7000060E082E00E94FE0212C060E002
:1000C00082E00E94FA0280EF90E00197F1F70000D1
:1000D00060E082E00E94FE0280919A008F5F809330
:1000E0009A00809199008F5F809399000895809184
:1000F0009A00882339F18091980080FD0DC061E05D
:1001000082E00E94FA028CE691E00197F1F761E04B
:1001100082E00E94FE0211C061E082E00E94FA02C9
:100120008FEE90E00197F1F761E082E00E94FE021D
:1001300080919A00815080939A00809198008F5FFF
:100140008093980008950E948C0149E450E061E09A
:1001500080E00E94F30247E750E061E081E00E9406
:10016000F30260E082E00E94F60261E082E00E9419
:10017000F602089580919A008A3010F580E80E9476
:10018000EF0060919A0070E080E090E00E948E02A3
:1001900080E690E00E947B0280EC0E94EF0080915C
:1001A0009A006AE070E0681B7109072E000C880B4A
:1001B000990B0E948E028EE690E00E947B02DACFBD
:1001C00080E80E94EF008AE790E00E947B0280ECCA
:1001D0000E94EF008AE890E00E947B02CBCFCF9391
:1001E000C82F40E061E081E00E947A03CC2334F420
:1001F00041E067E081E00E947A0305C040E067E0EB
:1002000081E00E947A03C6FF06C041E066E081E01B
:100210000E947A0305C040E066E081E00E947A0314
:10022000C5FF06C041E065E081E00E947A0305C099
:1002300040E065E081E00E947A03C4FF06C041E02F
:1002400064E081E00E947A0305C040E064E081E060
:100250000E947A0341E060E081E00E947A0389EF26
:1002600090E00197F1F700C0000040E060E081E01D
:100270000E947A0389EF90E00197F1F700C0000037
:10028000C3FF06C041E067E081E00E947A0305C039
:1002900040E067E081E00E947A03C2FF06C041E0CF
:1002A00066E081E00E947A0305C040E066E081E0FC
:1002B0000E947A03C1FF06C041E065E081E00E9430
:1002C0007A0305C040E065E081E00E947A03C0FF48
:1002D00006C041E064E081E00E947A0305C040E08E
:1002E00064E081E00E947A0341E060E081E00E94E6
:1002F0007A0389EF90E00197F1F700C0000040E039
:1003000060E081E00E947A0389EF90E00197F1F7C5
:1003100000C00000CF91089541E060E081E00E94BC
:10032000090341E061E081E00E94090341E064E0EB
:1003300081E00E94090341E065E081E00E94090339
:1003400041E066E081E00E94090341E067E081E06E
:100350000E94090383E00E94EF0087EE93E001977B
:10036000F1F700C0000083E00E94EF0087EE93E009
:100370000197F1F700C0000083E00E94EF0087EED4
:1003800093E00197F1F700C0000082E00E94EF00C7
:1003900088E20E94EF0088E00E94EF0081E00E9466
:1003A000EF0086E00E94EF008CE00E94EF0087E8FB
:1003B00093E10197F1F700C000000895CF93C82F93
:1003C00041E061E081E00E947A03CC2334F441E013
:1003D00067E081E00E947A0305C040E067E081E0C9
:1003E0000E947A03C6FF06C041E066E081E00E94F9
:1003F0007A0305C040E066E081E00E947A03C5FF11
:1004000006C041E065E081E00E947A0305C040E05B
:1004100065E081E00E947A03C4FF06C041E064E029
:1004200081E00E947A0305C040E064E081E00E9420
:100430007A0341E060E081E00E947A0389EF90E076
:100440000197F1F700C0000040E060E081E00E9409
:100450007A0389EF90E00197F1F700C00000C3FF35
:1004600006C041E067E081E00E947A0305C040E0F9
:1004700067E081E00E947A03C2FF06C041E066E0C7
:1004800081E00E947A0305C040E066E081E00E94BE
:100490007A03C1FF06C041E065E081E00E947A0373
:1004A00005C040E065E081E00E947A03C0FF06C01D
:1004B00041E064E081E00E947A0305C040E064E02E
:1004C00081E00E947A0341E060E081E00E947A03CB
:1004D00089EF90E00197F1F700C0000040E060E094
:1004E00081E00E947A0389EF90E00197F1F700C064
:1004F0000000CF9108950F931F93CF938C01C0E01C
:1005000003C00E94DE01CF5FF801EC0FF11D808176
:100510008111F7CFCF911F910F910895CF92DF9264
:10052000EF92FF921F93CF93DF93CDB7DEB72A9759
:100530000FB6F894DEBF0FBECDBF6B017C019923CF
:100540005CF48DE20E94DE01F094E094D094C094BB
:10055000C11CD11CE11CF11CC114D104E104F10443
:10056000E1F480E30E94DE0130C0C701B6012AE059
:1005700030E040E050E00E940305E1E0F0E0EC0FE5
:10058000FD1FE10FF11D17FDFA95605D6083C22E1E
:10059000D32EE42EF52E1F5F01C010E0C114D1044C
:1005A000E104F10411F7FF24FA94F10E0CC0E1E02C
:1005B000F0E0EC0FFD1FEF0DF11DF7FCFA958081C7
:1005C0000E94DE01FA94FF2094F72A960FB6F89461
:1005D000DEBF0FBECDBFDF91CF911F91FF90EF9097
:1005E000DF90CF9008950E94EB03089541E00E94B0
:1005F0000903089541E00E947A03089540E00E94B3
:100600007A0308950E94A3000E94BA0080E090E05F
:100610000895442319F04130C9F10895813091F0D3
:1006200028F08230D9F0833029F108952AB381E08F
:1006300090E002C0880F991F6A95E2F780958223A7
:100640008ABB089527B381E090E002C0880F991F0C
:100650006A95E2F78095822387BB089524B381E0F1
:1006600090E002C0880F991F6A95E2F78095822377
:1006700084BB089521B381E090E002C0880F991FE8
:100680006A95E2F78095822381BB0895813089F0D5
:1006900028F08230C9F0833011F108952AB381E047
:1006A00090E002C0880F991F6A95E2F7822B8ABBFF
:1006B000089527B381E090E002C0880F991F6A95E2
:1006C000E2F7822B87BB089524B381E090E002C05B
:1006D000880F991F6A95E2F7822B84BB089521B396
:1006E00081E090E002C0880F991F6A95E2F7822BA3
:1006F00081BB0895442319F04130C9F10895813038
:1007000091F028F08230D9F0833029F108952BB38D
:1007100081E090E002C0880F991F6A95E2F780950A
:1007200082238BBB089528B381E090E002C0880F3C
:10073000991F6A95E2F78095822388BB089525B3B7
:1007400081E090E002C0880F991F6A95E2F78095DA
:10075000822385BB089522B381E090E002C0880F18
:10076000991F6A95E2F78095822382BB08958130B4
:1007700089F028F08230C9F0833011F108952BB34D
:1007800081E090E002C0880F991F6A95E2F7822B02
:100790008BBB089528B381E090E002C0880F991FB9
:1007A0006A95E2F7822B88BB089525B381E090E03B
:1007B00002C0880F991F6A95E2F7822B85BB0895C6
:1007C00022B381E090E002C0880F991F6A95E2F79A
:1007D000822B82BB08959FB790689FBF813081F1C3
:1007E00020F0823009F457C008958BB780648BBF26
:1007F0005093A00040939F00613069F028F0623070
:1008000089F06330B1F0089585B78D7F85BF85B7D6
:100810008E7F85BF089585B78D7F85BF85B7816041
:1008200085BF089585B7826085BF85B78E7F85BFF8
:10083000089585B7826085BF85B7816085BF0895BB
:100840008BB780688BBF50939E0040939D006130B2
:1008500069F028F0623089F06330B1F0089585B70F
:10086000877F85BF85B78B7F85BF089585B7877FD5
:1008700085BF85B7846085BF089585B7886085BFCB
:1008800085B78B7F85BF089585B7886085BF85B79D
:10089000846085BF08958BB780628BBF50939C00A6
:1008A00040939B00623019F0633029F0089584B7BB
:1008B0008F7B84BF089584B7806484BF08951F929E
:1008C0000F920FB60F9211242F933F934F935F9384
:1008D0006F937F938F939F93AF93BF93EF93FF9308
:1008E000E0919F00F091A000309709F00995FF91E9
:1008F000EF91BF91AF919F918F917F916F915F9198
:100900004F913F912F910F900FBE0F901F90189510
:100910001F920F920FB60F9211242F933F934F9374
:100920005F936F937F938F939F93AF93BF93EF9357
:10093000FF93E0919D00F0919E00309709F009959A
:10094000FF91EF91BF91AF919F918F917F916F91A7
:100950005F914F913F912F910F900FBE0F901F907D
:1009600018951F920F920FB60F9211242F933F9359
:100970004F935F936F937F938F939F93AF93BF93A7
:10098000EF93FF93E0919B00F0919C00309709F06A
:100990000995FF91EF91BF91AF919F918F917F91B9
:1009A0006F915F914F913F912F910F900FBE0F90DC
:1009B0001F9018951F920F920FB60F9211242F932C
:1009C0003F934F935F936F937F938F939F93AF93D7
:1009D000BF93EF93FF93E091A100F091A2003097B5
:1009E00009F00995FF91EF91BF91AF919F918F9180
:1009F0007F916F915F914F913F912F910F900FBE1B
:100A00000F901F901895052E97FB1EF400940E94DE
:100A10001A0557FD07D00E94220507FC03D04EF4AB
:100A20000C941A0550954095309521953F4F4F4FA6
:100A30005F4F089590958095709561957F4F8F4F8A
:100A40009F4F0895A1E21A2EAA1BBB1BFD010DC0EA
:100A5000AA1FBB1FEE1FFF1FA217B307E407F5076E
:100A600020F0A21BB30BE40BF50B661F771F881F4A
:100A7000991F1A9469F760957095809590959B01E0
:0C0A8000AC01BD01CF010895F894FFCF38
:100A8C00206361727320696E736964652E00206344
:100A9C00617273206C6566742100476172616765D1
:100AAC002069732066756C6C2E00436865636B203F
:080ABC006C61746572210000F9
:00000001FF
